:020000040800F2
:10000000382F0020450100087733000879330008B5
:100010007D330008813300088533000800000000AC
:10002000000000000000000000000000893300080C
:100030008B330008000000008D3300088F33000868
:100040005F0100085F0100085F0100085F01000810
:100050005F0100085F0100085F0100085F01000800
:100060005F0100085F0100085F0100085F010008F0
:100070005F0100085F0100085F0100085F010008E0
:100080005F0100085F0100085F0100085F010008D0
:10009000E73300085F0100085F0100085F01000806
:1000A0005F0100085F0100085F0100085F010008B0
:1000B0005F0100085F0100085F0100085F010008A0
:1000C0005F0100085F0100085F0100085F01000890
:1000D0005F0100085F0100081B3400085F01000891
:1000E0005F0100085F0100085F0100085F01000870
:1000F0005F0100085F0100085F0100085F01000860
:100100005F010008973300085F0100085F010008E5
:100110005F0100085F0100089F3300085F010008CD
:100120005F0100085F0100085F0100085F0100082F
:10013000DFF80CD008F052FF00480047C32F00083A
:10014000382F00200648804706480047FEE7FEE7B4
:10015000FEE7FEE7FEE7FEE7FEE7FEE7FEE7FEE777
:1001600047020008310100080CB500200190009002
:100170006C48006840F480306A49086000BF6948F4
:10018000006800F4003000900198401C0190009835
:1001900018B90198B0F5A06FF1D16248006800F479
:1001A000003010B10120009001E000200090009884
:1001B000012843D15C48006840F010005A490860AB
:1001C0000846006820F0030008600846006840F018
:1001D0000200086053484068524948600846406839
:1001E00048600846406840F48060486008464068BF
:1001F00020F47C1048600846406840F4E8104860ED
:100200000846006840F08070086000BF45480068FC
:1002100000F000700028F9D04248406820F0030048
:10022000404948600846406840F00200486000BF0E
:100230003C48406800F00C000828F9D10CBD10B50E
:10024000FFF792FF10BD10B53648006840F001007E
:1002500034490860084640683449084031494860DC
:1002600008460068324908402E4908600846006880
:1002700020F4802008600846406820F4FE004860B2
:100280004FF41F008860FFF7DAFF4FF00060294944
:10029000086010BD10B5002100200022214B5B68D2
:1002A00003F00C0121B1042906D0082928D107E068
:1002B000214B224C236027E01F4B204C236023E07E
:1002C000184B5B6803F47010164B5B6803F48032C4
:1002D000022303EB904022B9194B4343174C236090
:1002E0000DE0104B5B6803F4003323B1144B434320
:1002F000124C236003E0104B4343104C236003E097
:100300000D4B0E4C236000BF00BF064B5B68C3F370
:1003100003130C4CE15C094B1B68CB40074C23607A
:1003200010BD000000100240002002400000FFF855
:10033000FFFFF6FE08ED00E000127A00000000204A
:1003400000093D000400002031490143314A116099
:10035000704770B5002100230F22C47804B32D4CE0
:10036000246804F4E064C4F5E064210AC1F10403E4
:10037000CA40447804FA03F1847814402143090107
:10038000254C0678A155047804F01F050124AC40E3
:1003900005786D11AD0005F1E025C5F8004109E0D3
:1003A000047804F01F050124AC401C4D067876113A
:1003B00045F8264070BD1A4A0A400243154B1B1FE0
:1003C0001A60704739B1134A121D12680243114B6B
:1003D0001B1D1A6006E00F4A121D126882430D4B66
:1003E0001B1D1A607047042808D14FF0E0210969ED
:1003F00041F004014FF0E022116107E04FF0E021ED
:10040000096921F004014FF0E022116170470000FA
:100410000000FA050CED00E000E400E080E100E0FF
:1004200080FFFF1F10B50446FA48844208D101211D
:10043000401501F077FB0021601501F073FB17E018
:10044000F548844208D10121001501F06BFB002121
:10045000201501F067FB0BE0F048844208D1012130
:10046000C80301F05FFB00214FF4004001F05AFB8C
:1004700010BD30B50246002000235068E84C2040F3
:100480000D790C6844EA0524204350609068E54CDF
:100490002040D1E902542C434D7944EA45042043DD
:1004A0009060D06A20F470000C7C641EE4B2234398
:1004B00040EA0350D06230BD0021016001714171FA
:1004C0008160C16001210174704721B1826842F0EE
:1004D0000102826003E0826822F0010282607047BC
:1004E00021B1826842F48072826003E0826822F463
:1004F00080728260704710B50023CBB21AB1446895
:100500001C43446002E044689C43446010BD816821
:1005100041F0080181607047014600208A6802F0BE
:1005200008020AB1012000E000207047816841F014
:10053000040181607047014600208A6802F00402CD
:100540000AB1012000E00020704721B1826842F426
:10055000A002826003E0826822F4A00282607047F9
:10056000014600208A6802F480020AB1012000E0FE
:100570000020704710B50A4600210023416821F48D
:100580006041531E41EA4331416010BD21B14268D0
:1005900042F40062426003E0426822F4006242607A
:1005A0007047F0B504460D4600200021092D11DDED
:1005B000E068A5F10A0606EB4607072606FA07F1EA
:1005C0008843A5F10A0606EB460603FA06F108433E
:1005D000E0600CE0206905EB4507072606FA07F105
:1005E000884305EB450603FA06F108432061072A14
:1005F0000FDA606B561E06EB86071F2606FA07F118
:100600008843561E06EB860605FA06F1084360632A
:1006100022E00D2A0FDA206BD61F06EB86071F2675
:1006200006FA07F18843D61F06EB860605FA06F19F
:100630000843206310E0E06AA2F10D0606EB86078E
:100640001F2606FA07F18843A2F10D0606EB86067F
:1006500005FA06F10843E062F0BD21B1826842F478
:100660008012826003E0826822F480128260704708
:100670000146C86C80B2704766484C3000687047CD
:1006800021B1426842F48062426003E0426822F491
:1006900080624260704721B1426842F480524260F9
:1006A00003E0426822F48052426070470A4600210B
:1006B000816821F4E04111438160704721B1826873
:1006C00042F40042826003E0826822F400428260C9
:1006D000704721B1826842F40212826003E08268AE
:1006E00022F4021282607047014600208A6802F4F8
:1006F00000120AB1012000E000207047F0B5044666
:100700001546002000220026092911DDE068A1F12C
:100710000A0707EB470C072707FA0CF29043A1F1F1
:100720000A0707EB470703FA07F21043E0600CE003
:10073000206901EB410C072707FA0CF2904301EB0B
:10074000410703FA07F210432061A06BC0F3015682
:10075000EF1C06F1010CA7EB0C0707EB870C1F271A
:1007600007FA0CF29043EF1C06F1010CA7EB0C0703
:1007700007EB870701FA07F21043A063F0BD10B53D
:100780000A4600210023816B21F44011531E41EAE7
:100790000351816310BD08B5002300930090009BB6
:1007A0000B440093009B1A6008BD08B50246002068
:1007B0000090009201F12800009B184400900098DE
:1007C000006880B208BD0A4600214168164B1940F6
:1007D0001143416070474162826270470A460021BE
:1007E000416821F01F0111434160704740B1094940
:1007F0000831096841F40001064A0832116007E037
:1008000004490831096821F40001024A08321160E4
:10081000704700000024014000280140003C0140D6
:10082000FFFEF0FFFDF7F1FFFFFD3FFF0246002056
:1008300013680B400BB1012000E000207047CA4351
:100840000260704770B502460020002300240B129E
:100850005568CEB205EA060415681D4015B10CB105
:10086000012000E0002070BD00220A12D343036083
:100870007047000010B50446FE48844209D10121AA
:10088000480601F05CF900214FF0007001F057F9C3
:1008900008E00121880601F052F900214FF0806044
:1008A00001F04DF910BD30B5024600200023146858
:1008B00024F002041460146844F00104146000E0A1
:1008C0005B1C546804F001041CB94FF6FF74A3428A
:1008D000F6D1546804F001040CB900206CE08C7966
:1008E000012C04D1146844F08004146003E01468FF
:1008F00024F080041460CC79012C04D1146844F0F5
:100900004004146003E0146824F0400414600C7A7E
:10091000012C04D1146844F02004146003E014682E
:1009200024F0200414604C7A012C04D1146844F0A3
:100930001004146003E0146824F0100414608C7A2E
:10094000012C04D1146844F00804146003E0146816
:1009500024F008041460CC7A012C04D1146844F00B
:100960000404146003E0146824F0040414608C7818
:10097000A407CD7844EA05640D7944EA05444D792D
:1009800044EA05540D886D1E2C43D461146824F08C
:1009900001041460002300E05B1C546804F00104AF
:1009A0001CB14FF6FF74A342F6D1546804F0010461
:1009B0000CB1002000E0012030BD10B50021837A89
:1009C000012202FA03F1AC4A126842F00102AA4B7A
:1009D0001A60A94A1C3212688A43A74B1C331A605A
:1009E000027BCAB9A44A0C3212688A43A24B0C3368
:1009F0001A604288C38842EA03439F4A4032847A9D
:100A000042F834300288838842EA03439A4A4032EB
:100A1000847A02EBC4025360027B012A19D1964A00
:100A20000C3212680A43944B0C331A6042880388D4
:100A300042EA0343904A4032847A42F83430C28812
:100A4000838842EA03438C4A4032847A02EBC40230
:100A50005360C27A3AB9884A121D12688A43864B9B
:100A60001B1D1A6006E0844A121D12680A43824B5D
:100A70001B1D1A60028932B97F4A143212688A43F8
:100A80007D4B14331A600289012A06D17A4A143246
:100A900012680A43784B14331A60427B012A06D14C
:100AA000754A1C3212680A43734B1C331A60724A2F
:100AB000126822F00102704B1A6010BD0021817192
:100AC000C171017241728172C1728170C170032162
:100AD0000171022141710121018070476649096855
:100AE00041F00101644A11601146096843F60E7233
:100AF0009143614A11601146096841EA0021116081
:100B00001146096821F001011160704721B10268A6
:100B100042F48032026003E0026822F48032026014
:100B20007047E1B1026842F0800202604FF4C27285
:100B3000125842F480734FF4C27213504FF4CA72C9
:100B4000125842F480734FF4CA7213504FF4D272A9
:100B5000125842F480734FF4D27213501BE00268B3
:100B600022F0800202604FF4C272125822F48073A5
:100B70004FF4C27213504FF4CA72125822F48073A9
:100B80004FF4CA7213504FF4D272125822F4807389
:100B90004FF4D2721350704710B50246002093688C
:100BA00003F08063B3F1806F00D110E0936803F02D
:100BB0000063B3F1006F01D1012008E0936803F0F6
:100BC0008053B3F1805F01D1022000E004200428AB
:100BD00079D002F5C07303EB00131B6803F0010426
:100BE00002F5C07303EB00131C600B7A7BB94B7AE0
:100BF0000C8843EA445302F5C07404EB00142468E3
:100C0000234302F5C07404EB0014236010E00B7A58
:100C10004C6843EAC4034C7A234302F5C07404EBE6
:100C200000142468234302F5C07404EB001423600D
:100C30008B7A03F00F038B7202F5C07303EB001382
:100C40005B6823F00F0402F5C07303EB00135C60D4
:100C500002F5C07303EB00135B688C7A234302F543
:100C6000C07404EB001463608B7B1C064B7B44EA6E
:100C7000034403E000640040006600400B7B44EA4C
:100C80000323CC7A234302F5C07404EB0014A36061
:100C90008B7C1C064B7C44EA03440B7C44EA032314
:100CA000CC7B234302F5C07404EB0014E36002F52F
:100CB000C07303EB00131B6843F0010402F5C0731B
:100CC00003EB00131C6010BD10B50246002321B1D8
:100CD000012907D002290FD109E09068F94C00EAF8
:100CE00004030BE09068F84C00EA040306E0906807
:100CF000F64C00EA040301E0002300BF00BFF44CFF
:100D0000181BA34216D007DC83B16FF08060184433
:100D100070B1022818D111E0B0F5007F10D0ED4C71
:100D2000204448B1B0F5003F0ED10BE002230DE0A6
:100D300000230BE0002309E0002307E0012305E086
:100D4000012303E0012301E0002300BF00BFD8B26C
:100D500010BD21B1012907D002290FD109E0826815
:100D600042F0800282600AE0826842F400428260BF
:100D700005E0826842F40002826000E000BF00BF2C
:100D8000704710B500F5D87303EB01131B6803F02F
:100D900004031372137A53B900F5D87303EB0113EC
:100DA0001B6840F2FF7404EA5353136009E000F536
:100DB000D87303EB01131B686FF0604404EAD3039C
:100DC000536000F5D87303EB01131B6803F00203B3
:100DD000537200F5D87303EB01135B6803F00F0344
:100DE000937200F5D87303EB01135B681B0AD3748D
:100DF00000F5D87303EB01139B68D37200F5D87329
:100E000003EB01139B681C0A147300F5D87303EB02
:100E100001139B681C0C547300F5D87303EB01138A
:100E20009B681B0E937300F5D87303EB0113DB680B
:100E3000D37300F5D87303EB0113DB681C0A147439
:100E400000F5D87303EB0113DB681C0C547400F538
:100E5000D87303EB0113DB681B0E937421B9C368CD
:100E600043F02003C36003E0036943F02003036100
:100E700010BD21B9C26842F02002C26003E00269DD
:100E800042F02002026170470246002019B9D3687F
:100E900003F0030006E0012903D1136903F0030006
:100EA00000E00020704710B502460B4600204FF6C8
:100EB000FF71BBB9146824F0020444F0010414600B
:100EC00000E0491E546804F00304012C01D00029FD
:100ED000F7D1546804F00304012C01D0002032E063
:100EE000012030E0012B13D1146824F003041460B6
:100EF00000E0491E546804F003040CB10029F8D145
:100F0000546804F003040CB100201CE001201AE036
:100F1000022B17D1146824F0010444F00204146079
:100F200000E0491E546804F00304022C01D000299B
:100F3000F7D1546804F00304022C01D0002002E031
:100F4000012000E0002010BD014600200A6822F0C8
:100F5000010242F002020A604A6802F00302022A19
:100F600000D10120704701464FF6FF7200200B6848
:100F700023F002030B6000E0521E4B6803F00203F3
:100F8000022B01D1002AF7D14B6803F00203022B98
:100F900000D001207047014600208A6902F07000ED
:100FA0007047014600208A69100E704701460020F4
:100FB0008A69C2F3074070471AB143690B43436122
:100FC00002E043698B434361704710B5024600203D
:100FD00001F4700343B19369C1F3130423400BB1CF
:100FE00001202DE000202BE001F0807343B1536815
:100FF000C1F3130423400BB1012021E000201FE0C6
:1010000001F0006343B19368C1F3130423400BB1B3
:10101000012015E0002013E001F0007343B1D36814
:10102000C1F3130423400BB1012009E0002007E0C5
:101030001369C1F3130423400BB1012000E0002029
:1010400010BD0022244B994202D10023836111E09C
:10105000C1F3130201F000730BB1C2600AE001F0AA
:1010600080630BB1026105E001F000630BB18260A7
:1010700000E0426070470246002002EA01030BB123
:10108000012000E00020704770B504460D460026A0
:1010900060692840002872D0B5F5807F69D01DDCDA
:1010A000082D42D006DC012D2DD0022D31D0042D8B
:1010B0007FD134E0102D3ED0202D42D0402D78D16C
:1010C00045E00000030000040003000800000310D6
:1010D000000100080001FFF77000F030B5F5004F87
:1010E00061D009DCB5F5007F4AD0B5F5806F4DD0F1
:1010F000B5F5006F5DD150E0B5F5803F2DD0B5F569
:10110000003F56D12FE0A0685549FFF7B4FF0646CF
:1011100051E0E0680321FFF7AEFF06464BE0E068D0
:101120000821FFF7A8FF064645E0E0681021FFF719
:10113000A2FF06463FE020690321FFF79CFF064619
:1011400039E020690821FFF796FF064633E0206961
:101150001021FFF790FF06462DE060680821FFF799
:101160008AFF064627E060681021FFF784FF0646E5
:1011700021E0A0690121FFF77EFF06461BE01BE08E
:10118000A0690221FFF777FF064614E0A069042159
:10119000FFF771FF06460EE00BE0A0697021FFF734
:1011A0006AFF064607E060680421FFF764FF064611
:1011B00001E0002600BF00E00026304670BDB1F51A
:1011C000007F3AD00FDC202928D006DC01291CD072
:1011D00004291DD0082940D11DE0402921D0B1F5B6
:1011E000807F3AD126E0B1F5004F31D006DCB1F571
:1011F000806F25D0B1F5006F2FD124E0B1F5803F8D
:1012000012D0B1F5003F28D111E0154A826025E0E7
:101210000822C26022E01022C2601FE008220261A0
:101220001CE01022026119E00822426016E0102240
:10123000426013E00422426010E0042242600DE0AC
:10124000042242600AE0002282610422426005E03A
:10125000002282610422426000E000BF00BF7047AC
:101260000101010001684FF6FE721140016000218A
:10127000016041608160C1608D49884208D18C491C
:101280000839496841F00F01894A083A51608AE0FB
:1012900087491431884208D185490839496841F0A5
:1012A000F001834A083A51607DE081492831884243
:1012B00008D17F490839496841F470617C4A083A8D
:1012C000516070E07A493C31884208D17849083948
:1012D000496841F47041764A083A516063E07449C4
:1012E0005031884208D172490839496841F4702167
:1012F0006F4A083A516056E06D496431884208D11E
:101300006B490839496841F47001694A083A5160EB
:1013100049E067497831884208D165490839496808
:1013200041F07061624A083A51603CE0614988428C
:1013300006D1011F096841F00F01021F116032E060
:101340005C491431884208D15A49091F096841F0A3
:10135000F001584A121F116025E056492831884291
:1013600008D15449091F096841F47061514A121F9C
:10137000116018E04F493C31884208D14D49091F9E
:10138000096841F470414B4A121F11600BE0494952
:101390005031884207D14749091F096841F470213B
:1013A000444A121F1160704710B50022026847F6C8
:1013B000F0739A430C6A8B6823430C6923434C698E
:1013C00023438C692343CC6923434C6A23438C6AAF
:1013D00023431A430260CB6843600B6883604B6809
:1013E000C36010BD0021016041608160C160016186
:1013F00041618161C161016241628162704721B1D5
:10140000026842F00102026004E002684FF6FE73D7
:101410001A40026070471AB103680B43036002E090
:1014200003688B430360704741607047014648681A
:1014300080B2704701460020002201F080531BB1AA
:101440001C4B083B1A6802E0194B083B1A6802EA79
:1014500001030BB1012000E00020704700F0805133
:1014600019B11449091F086002E0114908394860A0
:10147000704701460020002201F080531BB10D4B44
:10148000083B1A6802E00A4B083B1A6802EA0103AB
:101490000BB1012000E00020704700F0805119B12D
:1014A0000449091F086002E0014908394860704793
:1014B000080002400804024010B50446CC488442AB
:1014C00008D10121042000F02DFB0021042000F0B0
:1014D00029FB46E0C748844208D10121082000F0DA
:1014E00021FB0021082000F01DFB3AE0C2488442A5
:1014F00008D10121102000F015FB0021102000F080
:1015000011FB2EE0BD48844208D10121202000F0CB
:1015100009FB0021202000F005FB22E0B8488442AE
:1015200008D10121402000F0FDFA0021402000F008
:10153000F9FA16E0B348844208D10121802000F076
:10154000F1FA0021802000F0EDFA0AE0AE48844272
:1015500007D10121801500F0E5FA0021A01500F067
:10156000E1FA10BD10B50121084600F0DBFA0021B8
:10157000012000F0D7FA10BD2DE9F0410246002508
:101580000026002000230024002791F803C00CF05F
:101590000F0591F803C00CF0100CBCF1000F03D044
:1015A00091F802C04CEA050591F800C0BCF1000FAB
:1015B00031D0146800202BE04FF0010C0CFA00F33E
:1015C000B1F800C00CEA03069E4220D183004FF020
:1015D0000F0C0CFA03F7BC4305FA03FC4CEA0404B5
:1015E00091F803C0BCF1280F06D14FF0010C0CFAA2
:1015F00000FCC2F814C00AE091F803C0BCF1480F27
:1016000005D14FF0010C0CFA00FCC2F810C0401CD0
:101610000828D1D31460B1F800C0BCF1FF0F34DD4D
:10162000546800202EE000F1080C4FF0010808FA81
:101630000CF3B1F800C00CEA03069E4221D18300EE
:101640004FF00F0C0CFA03F7BC4305FA03FC4CEA0D
:10165000040491F803C0BCF1280F05D100F1080C77
:1016600008FA0CF8C2F8148091F803C0BCF1480FD6
:1016700007D100F1080C4FF0010808FA0CF8C2F885
:101680001080401C0828CED35460BDE8F0814FF68E
:10169000FF710180022181700421C17070470246F0
:1016A000002093680B400BB1012000E00020704740
:1016B0000146886880B2704702460020D3680B401C
:1016C0000BB1012000E0002070470146C86880B2DD
:1016D000704701617047416170470AB1016100E0E4
:1016E00041617047C16070474FF480320A438261A4
:1016F0008161826182698269704702460020434BA2
:1017000018684FF68073184040EA021008433F4BB8
:10171000186070473E49C8617047F0B50A4600231B
:1017200000240021002500F00046B6F1004F02D150
:10173000364EF16901E0354E7168C0F3034583B25E
:1017400000F44016B6F5401F08D121F070612F4E0D
:10175000766826F070662D4F7E6012E000F48016E9
:10176000B6F5801F06D1032606FA05F4A14341F021
:10177000706106E0460D360103FA06F6B14341F00A
:10178000706122B1460D360103FA06F6314300F0CE
:101790000046B6F1004F02D11C4EF16101E01B4E34
:1017A0007160F0BD30B500228B071C0F0F2303FAC8
:1017B00004F2164B08338C1053F824309343134C27
:1017C00008348D1044F8253023468C1053F824300B
:1017D0008C07240F00FA04F423430C4C08348D10BA
:1017E00044F8253030BD0A49DC31086070470000FC
:1017F00000080140000C01400010014000140140AD
:1018000000180140001C0140002001400000014080
:1018100000002042DF48006840F00100DD49086018
:1018200008464068DC490840DA49486008460068D4
:10183000DA490840D74908600846006820F480204B
:1018400008600846406820F4FE0048604FF41F001E
:1018500088607047CF49096821F48031CD4A116012
:101860001146096821F480211160B0F5803F03D052
:10187000B0F5802F0ED106E0C649096841F48031E9
:10188000C44A116007E0C349096841F4A021C14A74
:10189000116000E000BF00BF704710B50146002294
:1018A000002300204A11012A02D1BA4C236806E025
:1018B000022A02D1B74C236A01E0B64C636A01F0F8
:1018C0001F02012494401C400CB1012000E00020C4
:1018D00010BD38B5002000900024002500BF312045
:1018E000FFF7DBFF05460098401C00900098B0F51C
:1018F000A06F01D0002DF2D03120FFF7CEFF08B14C
:10190000012400E00024204638BD01460020A14A01
:10191000106820F0F80040EAC10010607047A0494C
:1019200008607047024600209A4B586820F47C10EB
:1019300042EA01031843974B58607047984908667C
:10194000704701460020934A506820F00300084386
:10195000506070478F48406800F00C0070470146A7
:1019600000208C4A506820F0F00008435060704717
:1019700001460020874A506820F4E0600843506028
:10198000704701460020834A506820F4605040EAC6
:10199000C1005060704729B17E4A527A02437D4BA4
:1019A0005A7204E07B4A527A82437A4B5A727047E9
:1019B0007B49D8310860704701460020754A50685D
:1019C00020F440400843506070470021714A2032A3
:1019D0001170704A82F82010012802D004280AD120
:1019E00004E001216B4A2032117005E00521694AAB
:1019F0002032117000E000BF00BF704769490860E5
:101A000070476449096A0143624A11627047654937
:101A100044390860704730B50021002200240023BB
:101A20005C4D6D6805F00C0121B1042905D0082931
:101A300023D105E05C4D056022E05B4D05601FE0B1
:101A4000544D6D6805F47012524D6D6805F4803484
:101A5000022505EB92421CB9544D554305600BE03D
:101A60004C4D6D6805F400351DB1504D5543056072
:101A700002E04D4D5543056002E04B4D056000BF4F
:101A800000BF444D6D6805F0F0010909484D6B5CDD
:101A90000568DD4045603F4D6D6805F4E061090A69
:101AA000434D6B5C4568DD4085603A4D6D6805F4DB
:101AB0006051C90A3E4D6B5C4568DD40C560354DDF
:101AC0006D6805F44041890B3A4D6B5CC568B5FB08
:101AD000F3F5056130BD29B12E4A526902432D4B01
:101AE0005A6104E02B4A526982432A4B5A6170477B
:101AF00029B1284A92690243264B9A6104E0254A9B
:101B000092698243234B9A61704729B1214AD26975
:101B10000243204BDA6104E01E4AD26982431D4B26
:101B2000DA61704729B11B4AD2680243194BDA6067
:101B300004E0184AD2688243164BDA60704729B134
:101B4000144A12690243134B1A6104E0114A1269E4
:101B50008243104B1A617047124940390860704740
:101B60000F49C86470470B49C87170470948406AFB
:101B700040F0807007494862704701460020054ADE
:101B800092680A400AB1012000E000207047014934
:101B900088727047001002400000FFF8FFFFF6FE59
:101BA000000042428004424200127A0000093D00D7
:101BB000140000202400002000206F4908604860C5
:101BC0008860C86048628862C8626C488863002088
:101BD000C86370470021684A516847F6FF62914325
:101BE000027D83681A4343681A43C3681A43036833
:101BF0001A4303691A4311435F4A51607047002139
:101C00000175016041608160C160016170475C499C
:101C1000086070475849096821F00301564A11606D
:101C2000114609680143116070475348006800F08D
:101C30000300704729B1504AD26B02434E4BDA631E
:101C400004E04D4AD26B82434B4BDA6370474D49F7
:101C5000086070470021484B02689A601A46D168B4
:101C60006FF30A01D0E901231A43C3681A430369D9
:101C70001A431143404AD16070470021016041601E
:101C80008160C160016170473B480069C0B2704724
:101C900008B50146002000903748143008440090F1
:101CA0000098006808BD0021334B02685A62426800
:101CB0009A621A46D16A21F0F701D0E902231A4349
:101CC00003691A4343691A4311432B4AD16270478F
:101CD0004FF0FF310160002141608160C16001610E
:101CE000416170472448006B70472348803000688A
:101CF000704721498031086070471F48806C7047E9
:101D000020491431086070471E4918310860704737
:101D10001C491C31086070471A492031086070471F
:101D20001949086070471849091D0860704701216A
:101D30008143154A08321160704713490C3108601D
:101D40007047014600200C4A526B0A400AB101203C
:101D500000E0002070470849886370470146002072
:101D6000054A526B0A400AB1012000E0002070478A
:101D7000014988637047000000800140FF07C000F0
:101D8000A00030428C053042AC01304210B5044610
:101D9000FE48844208D10121C014FFF7C3FE002190
:101DA000E014FFF7BFFEC4E0B4F1804F08D1012179
:101DB0000846FFF7C4FE00210120FFF7C0FEB8E08F
:101DC000F348844208D101210220FFF7B8FE002128
:101DD0000220FFF7B4FEACE0EE48844208D10121B6
:101DE0000420FFF7ACFE00210420FFF7A8FEA0E0CE
:101DF000E948844208D101210820FFF7A0FE002114
:101E00000820FFF79CFE94E0E448844208D10121B9
:101E10001020FFF794FE00211020FFF790FE88E0CD
:101E2000DF48844208D101212020FFF788FE0021ED
:101E30002020FFF784FE7CE0DA48844208D10121AB
:101E40004014FFF76FFE00216014FFF76BFE70E097
:101E5000D548844209D10121C804FFF763FE00215F
:101E60004FF40020FFF75EFE63E0D048844209D1C2
:101E700001210805FFF756FE00214FF48010FFF7FF
:101E800051FE56E0CA48844209D101214805FFF7B6
:101E900049FE00214FF40010FFF744FE49E0C54819
:101EA000844208D101214020FFF749FE0021402053
:101EB000FFF745FE3DE0C048844208D10121802063
:101EC000FFF73DFE00218020FFF739FE31E0BB48DF
:101ED000844208D101218015FFF731FE0021A015B1
:101EE000FFF72DFE25E0B648844209D10121080400
:101EF000FFF718FE00214FF48030FFF713FE18E0C3
:101F0000B048844209D101214804FFF70BFE0021AB
:101F10004FF40030FFF706FE0BE0AB48844208D1D7
:101F200001218804FFF7FEFD00214FF48020FFF718
:101F3000F9FD10BD00220288944B98420ED0994BB7
:101F400098420BD0B0F1804F08D0914B984205D009
:101F5000904B984202D0904B984204D14FF68F7329
:101F60001A404B881A438D4B984207D08C4B9842AD
:101F700004D04FF6FF431A40CB881A4302808B8867
:101F800083850B880385814B98420BD0854B984203
:101F900008D08B4B984205D08A4B984202D08A4B8E
:101FA000984201D10B7A038601238382704770B572
:101FB000002400220023058C4FF6FE763540058470
:101FC000028C8388048B4FF68F752C40B51E2C40F5
:101FD0000D882C43751E2A400D892A434D882A43BB
:101FE0006A4DA8420BD06F4DA84208D0744DA8424C
:101FF00005D0744DA84202D0734DA84213D14FF6BC
:10200000F7752A404D892A434FF6FB752A408D8883
:102010002A434FF6FF652B404FF6FF552B408D8925
:102020002B43CD892B4383800483CD88858602840E
:1020300070BD70B5002400220023058C4FF6EF76AA
:1020400035400584028C8388048B48F6FF752C404C
:102050004FF6FF452C400D884FF6FF7606EA052522
:102060002C434FF6DF752A400D8906EA05152A43F1
:102070004D8806EA05152A43444DA84202D0494D31
:10208000A8421DD14FF67F752A404D894FF6FF7645
:1020900006EA05152A434FF6BF752A408D8806EAE1
:1020A00005152A434FF6FF352B404FF2FF752B40A5
:1020B0008D8906EA85052B43CD8906EA85052B43E4
:1020C00083800483CD880587028470BD70B50024A9
:1020D00000220023058C4FF6FF6635400584028CF4
:1020E0008388848B4FF68F752C404FF6FC752C40FF
:1020F0000D882C434FF6FF552A400D894FF6FF7689
:1021000006EA05252A434D8806EA05252A431F4D80
:10211000A84202D0234DA8421DD14FF2FF752A409C
:102120004D894FF6FF7606EA05252A434FF6FF351F
:102130002A408D8806EA05252A434EF6FF752B4076
:102140004DF6FF752B408D8906EA05152B43CD8989
:1021500006EA05152B4383808483CD888587028416
:1021600070BD70B5002200230024058C4EF6FF766A
:1021700035400584038C8488828B48F6FF752A409D
:102180004FF6FF452A400D8820E00000002C01405A
:102190000004004000080040000C00400010004017
:1021A0000014004000340140004C01400050014048
:1021B0000054014000180040001C00400020004076
:1021C0000040014000440140004801404FF6FF76C6
:1021D00006EA05252A434DF6FF752B400D8906EAD0
:1021E00005352B434D8806EA05352B43FA4DA842A9
:1021F00002D0FA4DA84208D14BF6FF752C408D89CC
:102200004FF6FF7606EA85152C4384808283CD88BD
:10221000A0F84050038470BD828B4FF2FF331A4008
:102220008283828B4FF6FF7303EA01231A43828372
:102230007047F0B50C461546002200210026078C99
:102240004EF6FF7C07EA0C070784828B018C4FF661
:10225000FF7707EA043640F6FF473A404FF6FF772C
:1022600007EA05273A434FF6FF7707EA03373A4371
:10227000D94FB8420ED0D94FB8420BD0B0F1804FF1
:1022800008D0D74FB84205D0D64FB84202D0D64F6B
:10229000B84206D14DF6FF77394046F480573943AE
:1022A00005E047F6FF57394044F4805739438283AD
:1022B0000184F0BD828B4FF6F3731A408283828BC8
:1022C0000A4382837047F0B50C4615460022002170
:1022D0000026078C4FF6FF6C07EA0C070784828BF9
:1022E000018C4FF6FF7707EA04264FF60C773A4049
:1022F0004FF6FF7707EA03172F433A43B64FB8422A
:102300000ED0B64FB8420BD0B0F1804F08D0B44FCA
:10231000B84205D0B34FB84202D0B34FB84206D14D
:102320004FF6FF57394046F48077394305E04FF2C6
:10233000FF57394044F48077394382830184F0BDEC
:10234000028B4FF2FF331A400283028B4FF6FF736A
:1023500003EA01231A4302837047F0B50C46154681
:10236000002200210026078C4FF6EF7C07EA0C07BD
:102370000784028B018C4FF6FF7707EA041640F6BC
:10238000FF473A404FF6FF7707EA03373A434FF6E5
:10239000FF7707EA05273A438F4FB8420ED08F4F99
:1023A000B8420BD0B0F1804F08D08D4FB84205D065
:1023B0008C4FB84202D08C4FB84206D14FF6DF772F
:1023C000394046F01007394305E04FF65F77394052
:1023D00044F01007394302830184F0BD028B4FF6AD
:1023E000F3731A400283028B0A4302837047F0B5ED
:1023F0000C46154600220021068C4FF6FE773E4023
:102400000684028B018C4FF60C7632407E1C06EA65
:1024100003162E433243704EB0420ED06F4EB04280
:102420000BD0B0F1804F08D06D4EB04205D06D4E4C
:10243000B04202D06C4EB04206D14FF6FD7631402C
:1024400044F00106314305E04FF6F576314044F0A3
:102450000106314302830184F0BD70B505460C4688
:102460005D4885420ED05D4885420BD0B5F1804F66
:1024700008D05B48854205D05A48854202D05A4868
:10248000854200D100E000BF208850B92389A2888E
:1024900061882846FFF7ABFFE1882846FFF79EFFDB
:1024A00025E0208804280AD12389A288618828464B
:1024B000FFF753FFE1882846FFF742FF17E0208827
:1024C00008280AD12389A28861882846FFF7FBFEE5
:1024D000E1882846FFF7EEFE09E02389A28861889B
:1024E0002846FFF7A6FEE1882846FFF795FE70BD57
:1024F0002DE9F04105460C4600260127608808B901
:10250000022600E00026A088012801D1022700E071
:1025100001272088A0B92389A28861882846FFF76F
:1025200066FFE1882846FFF759FF23893A4631467E
:102530002846FFF712FFE1882846FFF701FF13E066
:102540002389A28861882846FFF707FFE18828468B
:10255000FFF7F6FE23893A4631462846FFF747FF44
:10256000E1882846FFF73AFFBDE8F0810A884B88EA
:102570001A438B881A43CB881A430B891A434B8919
:102580001A438B891A43A0F8442070474FF6FF7115
:10259000818000210180C18041800172704700214B
:1025A000018041808180C180018141818181C1811F
:1025B0007047002101804180012181800021C1807C
:1025C000018170470021018041808180C1800181AB
:1025D0004181818170470000002C0140003401409E
:1025E0000004004000080040000C004021B10288B7
:1025F00042F00102028004E002884FF6FE731A40A6
:102600000280704731B1B0F8442042F40042A0F893
:10261000442005E0B0F84420C2F30E02A0F84420A4
:1026200070471AB183890B43838102E083898B430E
:10263000838170478182704741EA0203A0F84830E5
:1026400070471AB183890B43838102E083898B43EE
:102650008381704701894FF6F872114001817047FC
:102660000A46002101894FF68F73194011430181F9
:10267000704730B504460D4629462046FFF7F0FF67
:10268000208940F00700208130BD2DE9F04104464B
:102690000D4616461F46602D06D13B4601223146A7
:1026A0002046FFF75AFE05E03B4601223146204610
:1026B000FFF79DFE29462046FFF7D2FF208940F014
:1026C00007002081BDE8F08130B50C46002101896A
:1026D000C9B24FF6FF7505EA032515432543294383
:1026E000018130BD2DE9F04105460E46174698465A
:1026F000002443463A4631462846FFF7E5FF2C8939
:102700004FF6F870044044F007044FF68F70044011
:1027100044F070042C81BDE8F081F0B504460D460C
:1027200016461F463B46324629462046FFF7CCFF59
:10273000208940F480402081F0BD0185828270476D
:102740000A46002101884FF68F731940114301801A
:102750007047F0B50C4615461E46002100220023A6
:102760000189028B038C4FF6F877394021434FF6ED
:10277000FC473A4040F201173A434FF6DD773B40C1
:102780004FF6FF7707EA06172F433B430181028389
:102790000384F0BD0A460021018B4FF68F73194068
:1027A0001143018370470A460021018B48F6FF73ED
:1027B00019404FF6FF7303EA022319430183704760
:1027C0000A460021818B4FF68F7319401143818394
:1027D00070470A460021818B48F6FF7319404FF677
:1027E000FF7303EA022319438183704721B10288F2
:1027F00042F08002028004E002884FF67F731A40A4
:102800000280704721B1828842F00402828004E095
:1028100082884FF6FB731A408280704721B182880C
:1028200042F00802828004E082884FF6F7731A4073
:102830008280704721B1828842F00102828004E0E8
:1028400082884FF6FE731A40828070470A46002144
:10285000018B4FF6F77319401143018370470A4605
:102860000021018B4FF2FF7319404FF6FF7303EA0B
:1028700002231943018370470A460021818B4FF6DA
:10288000F77319401143818370470A460021818BF9
:102890004FF2FF7319404FF6FF7303EA0223194307
:1028A000818370470A460021018B4FF6FB73194064
:1028B0001143018370470A460021018B4FF6FF3315
:1028C00019404FF6FF7303EA02231943018370474F
:1028D0000A460021818B4FF6FB7319401143818317
:1028E00070470A460021818B4FF6FF3319404FF69F
:1028F000FF7303EA02231943818370470A460021CC
:10290000018B4FF67F7319401143018370470A46CC
:102910000021018BC1F30E014FF6FF7303EA02237E
:102920001943018370470A460021818B4FF67F735C
:1029300019401143818370470A460021818BC1F3FE
:102940000E014FF6FF7303EA022319438183704798
:102950000A460021018C4FF6FD7319401143018492
:1029600070470A460021018C4FF6F7731940114356
:10297000018470470A460021018C4FF6DF7319402D
:102980004FF6FF7303EA02131943018470470A46A6
:102990000021018C4FF67F7319404FF6FF7303EA55
:1029A00002131943018470470A460021018C4FF637
:1029B000FF5319404FF6FF7303EA022319430184C2
:1029C00070470A460021018C4FF2FF7319404FF601
:1029D000FF7303EA02231943018470470A4600216A
:1029E000018C4DF6FF7319404FF6FF7303EA023373
:1029F00019430184704730B5002301248C40A3B2F1
:102A0000048C9C430484048C02FA01F5ADB22C437F
:102A1000048430BD30B5002304248C40A3B2048C60
:102A20009C430484048C02FA01F5ADB22C43048467
:102A300030BD70B50346002000241846183001252B
:102A40008D40ACB21D8CA5431D8409B1082909D164
:102A500000EB6100056825F0700505600568154309
:102A600005600EE00D1FC5F34E052844056825F4EA
:102A7000E045056005684FF6FF7606EA0226354315
:102A8000056070BD21B1028842F00202028004E0BC
:102A900002884FF6FD731A400280704721B1028808
:102AA00042F00402028004E002884FF6FB731A40F1
:102AB0000280704721B1828842F08002828004E067
:102AC00082884FF67F731A408280704702884FF6E3
:102AD000F7731A40028002880A4302807047828896
:102AE0004FF68F731A40828082880A438280704733
:102AF00002894FF6F8731A40028102890A43028163
:102B0000704702894FF67F731A40028102890A4397
:102B10000281704781847047818570478186704744
:102B20000187704781877047A0F84010704702887E
:102B30004FF6FF431A40028002880A430280704722
:102B40000146888E70470146088F70470146888F7E
:102B500070470146B1F8400070470146888C7047C5
:102B60000146088D704702460020138A0B400BB1C6
:102B7000012000E000207047CA430282704730B550
:102B80000246002000230024158A05EA01039589E6
:102B900005EA010413B10CB1012000E0002030BDB2
:102BA000CA4302827047000010B50446FB488442C5
:102BB00009D101218803FEF7B5FF00214FF48040C1
:102BC000FEF7B0FF32E0F648844209D10121480403
:102BD000FEF7B5FF00214FF40030FEF7B0FF25E00F
:102BE000F048844209D101218804FEF7A8FF0021A2
:102BF0004FF48020FEF7A3FF18E0EB48844209D190
:102C00000121C804FEF79BFF00214FF40020FEF7CE
:102C100096FF0BE0E548844208D101210805FEF744
:102C20008EFF00214FF48010FEF789FF10BD2DE9C3
:102C3000F04786B005460E460024A24600BFA146D6
:102C40000027B08900B100BF2F462C8A4CF6FF70D8
:102C50000440F08804432C82AC894EF6F310044003
:102C6000B08831890843718908430443AC81AC8A38
:102C70004FF6FF400440B0890443AC8201A8FEF740
:102C8000CAFEC648874202D1DDF810A001E0DDF897
:102C90000CA0A88900F4004040B10AEBCA0000EB88
:102CA0000A1031684900B0FBF1F807E00AEBCA00EE
:102CB00000EB0A1031688900B0FBF1F86420B8FB22
:102CC000F0F004012009642101FB1089A88900F4B7
:102CD000004040B1322000EBC900B0FBF1F000F041
:102CE0000700044308E0322000EB09106421B0FB28
:102CF000F1F000F00F0004432C8106B0BDE8F0872E
:102D00004FF41651016000218180C18001810C21A6
:102D1000418100218181704710B502460020108A50
:102D20004FF2FF0318400B884C8823438C882343C1
:102D3000CC8823431843108210BD002101804180BC
:102D40008180C180704721B1828942F40052828122
:102D500004E082894DF6FF731A4082817047F0B516
:102D60000346002400260025002040F66A17B942D9
:102D700000D100BF1846C1F3421401F01F0601271D
:102D800007FA06F5012C01D10C3004E0022C01D128
:102D9000103000E014301AB107682F43076002E0DA
:102DA0000768AF430760F0BD1AB1838A0B43838283
:102DB00002E0838A8B4383827047028A4FF6F07366
:102DC0001A400282028A0A430282704782894FF2C5
:102DD000FF731A40828182890A438281704721B140
:102DE000828942F00202828104E082894FF6FD73FB
:102DF0001A4082817047028A4FF6DF731A400282BE
:102E0000028A0A430282704721B1028A42F4804258
:102E1000028204E0028A4BF6FF731A400282704776
:102E2000C1F308028280704701468888C0F3080019
:102E30007047818941F0010181817047028BD2B2D4
:102E40000283028B42EA012202837047028B02F462
:102E50007F420283028B0A430283704721B1828A38
:102E600042F02002828204E0828A4FF6DF731A4029
:102E70008282704721B1828A42F01002828204E08D
:102E8000828A4FF6EF731A408282704721B1828A9C
:102E900042F00802828204E0828A4FF6F7731A40F9
:102EA0008282704721B1828942F40042828103E02C
:102EB0008289C2F30E028281704721B1828A42F474
:102EC0000062828204E0828A4FF2FF731A4082829B
:102ED0007047828A4FF6FB731A408282828A0A43C5
:102EE0008282704721B1828A42F00202828204E02B
:102EF000828A4FF6FD731A40828270470246002094
:102F0000B1F5007F00D100BF13880B400BB1012049
:102F100000E00020704701F40072B2F5007F00D19C
:102F200000BFCA430280704770B5024600240023E8
:102F30000025002040F66A16B14200D100BFC1F35F
:102F4000421501F01F03012606FA03F3012D02D1F9
:102F50009689334006E0022D02D1168A334001E003
:102F6000968A33400C12012606FA04F4168834407F
:102F700013B10CB1012000E0002070BD10B500229B
:102F8000002340F66A14A14200D100BF0A120124B6
:102F90009440A3B2DC43048010BD0000003801401F
:102FA0000044004000480040004C004000500040F9
:102FB00001B502E00098401E009000980028F9D169
:102FC00008BD88B000F040FA01F098FE02F04EF91A
:102FD00001F09BFF00F068FAB2A006F059F801F08A
:102FE00052FF02F093F902F035F82020B64908604C
:102FF0000120091F086002200860B4A006F048F80C
:103000004FE10121B74802F04CF9012816D12020E8
:10301000AD49091F08600120091D08600220091F31
:1030200008604FF47A7001F0E7FFAF480078401C69
:10303000AD490870AD480068AD490860AA480078FD
:1030400000287DD0A84800781C2879DCA9480078A1
:10305000012876D1A4490978491EA74A505C05F099
:1030600078FECDE90601A0490978491EA34A505CC3
:1030700005F06FFE804642460B46A148A14905F087
:10308000F4FD04460D4699490968994A1268881A60
:1030900005F05FFE064622462B4605F0E6FD824619
:1030A000DDE9062305F08EFE5BD820208649091F46
:1030B0000860012008600220091D08608B4909682A
:1030C0008B4A1268881A05F03FFE874901900978FB
:1030D000491E8A4A505C05F037FE0090019905F0C0
:1030E0003BFC8346884905F069FC824605F057FEA3
:1030F000804606F0D1FBCDE904018449844A127868
:1031000051F8220005F04BFECDE90201DDE9042370
:1031100005F039FD06460F467E48008805F019FE89
:1031200032463B46CDE9060105F086FC044605F033
:103130001DFE794908806D4800687849086001E003
:1031400074E068E074480188002002F0D2F9744904
:103150000880664800687349086000206549087067
:1031600056E06C4800886C490880604800686B49EC
:10317000086069480188002002F0BBF968490880AE
:103180005A4800686749086020204F49091F0860B5
:103190000120091D08600220091F086052490978B2
:1031A000491E564A505C05F0D4FD02460B46CDE957
:1031B00004015348534905F058FDCDE906014A4939
:1031C0000978491E4C4A505C05F0C3FD0646DDE90E
:1031D000062305F0D8FC8046894644490968444ADC
:1031E0001268881A05F0B5FD824642464B4605F046
:1031F000C4FC044600224C4B05F0FCFD08D83B48BB
:1032000000683B49086038480078401C364908701F
:1032100000203849087045480078012806D101F09F
:10322000C7FF002042490880404908703D480268B5
:103230003A4801683FA005F02BFF2B4800781C2876
:103240002FDB202020490860012008600220091F90
:1032500008604FF4FA6001F0CFFE012022490870A7
:103260002B480078401C2A4908700846017838A08D
:1032700005F00EFF26480078012812DD01F098FFC6
:103280000EE000202949087020200F490860012025
:103290000860022008600020254908801249087053
:1032A000EFE7AEE60D0A2A2A2A2A2A2A20B2E2CA23
:1032B000D4CFB5CDB3B6AFCCACCCD8D0D4202A2A9D
:1032C0002A2A2A2A0D0A0000140C01400D0A202D7A
:1032D0002D2D2D4144435F544553542D2D2D2D0D3F
:1032E0000A000000000801408F000020A00000201C
:1032F00070000020910000204300002028000020E2
:10330000F31FD26F2F8BB84000007A44600000207A
:10331000A80000206800002076000020AC000020FB
:1033200084000020B000002000408F40900000206A
:10333000920000200D0A20207431203D20256420B9
:103340002C207432203D202564200D0A000000004E
:103350000D0A206C6173742041203D202564200DEE
:103360000A00000001B502E00098401E009000989D
:103370000028F9D108BD704700BFFEE700BFFEE797
:1033800000BFFEE700BFFEE770477047704710B50B
:1033900001F009FE10BD10B501F0E8FB10BD10B53D
:1033A00001212048FFF7EBFBE0B11F480068401CFB
:1033B0001D490860084600680A21B0FBF1F201FBD4
:1033C000120058B91948007840B101201849087016
:1033D00001F065FE10B10120164908700121114865
:1033E000FFF7DEFB10BD10B5134A00211348FDF7AF
:1033F000C8FC11480068B0F5807F0DD10E48C07A36
:103400000F4908700C48007B48700B48407B0D4901
:1034100008700948807B487010BD10B502F030F884
:1034200010BD000000100040A00000208F00002010
:10343000910000209000002018010020006400404E
:103440008B0000208D00002008B501210820FEF728
:103450004FFB2020ADF8000010208DF80300032062
:103460008DF8020069460F48FEF786F80120ADF896
:10347000000069460B48FEF77FF80220ADF8000017
:1034800069460848FEF778F820210648FEF721F93A
:1034900001210448FEF71DF902210248FEF719F93F
:1034A00008BD0000000C014000B585B001210420DA
:1034B000FEF71EFB01218803FEF71AFB4FF4007094
:1034C000ADF8100018208DF8130003208DF81200BD
:1034D00004A92248FEF750F84FF48060ADF81000C0
:1034E00004208DF8130004A91C48FEF745F84FF49A
:1034F000E13000900020ADF80400ADF80600ADF812
:103500000800ADF80C000C20ADF80A00694614481C
:10351000FFF78DFB01211248FFF715FC05B000BD38
:1035200070B504460D46E1B20D48FFF779FC00BFC7
:1035300080210B48FFF7E2FC0028F9D0204670BD3F
:1035400010B5044600BF20210548FFF7D7FC00282E
:10355000F9D00348FFF768FC10BD000000080140E7
:103560000038014008B50020FEF751FB0020FEF7AF
:1035700051FBFEF721FB00214FF48060FEF7ABFA10
:103580004FF4F850ADF8000004208DF803006946B0
:10359000FC48FDF7F1FF0420ADF800006946FA4849
:1035A000FDF7EAFF08BD08B54FF4C060FCF7CCFE9C
:1035B00031208DF8000000208DF801008DF8020008
:1035C00001208DF803006846FCF7C3FE08BD10B566
:1035D000EE48FDF72FFF10BD30B58BB005460C4609
:1035E000EB48FDF73BFF0021EA48FDF708FFEA48FA
:1035F0000090019500200290A00803900020049004
:1036000080200590800006908000079000200890A0
:103610004FF40050099000200A906946DD48FDF7FC
:10362000C3FE0121DB48FDF7EAFE0BB030BD30B52B
:103630008BB005460C46D648FDF710FF0021D54853
:10364000FDF7DDFED4480090019510200290A008FF
:103650000390002004908020059080000690800058
:103660000790002008904FF40050099000200A9025
:103670006946C848FDF798FE0121C648FDF7BFFE20
:103680000BB030BD08B501213020FEF731FA4FF400
:10369000F850ADF8000003208DF8020018208DF8D6
:1036A00003006946B748FDF767FF0420ADF8000046
:1036B0006946B548FDF760FF01218802FEF70BFA65
:1036C00001210220FEF707FA08BD014600BFB248FB
:1036D0008038406B00F045000028F8D040F2FF50E1
:1036E000AD4A803A90631046406908221040C0B24B
:1036F00070472DE9FC4107460D46002600240020B6
:10370000009001900820A5490860102048604020E2
:1037100088600020C8604FF4806008610846FEF7AA
:1037200099FA1020FFF7D1FF044614B12046BDE8F6
:10373000FC819B4800880004984908603720486055
:10374000402088600020C8604FF48060086108460F
:10375000FEF780FA3720FFF7B8FF04460CB1204689
:10376000E5E74FF0FF308F490860082048603020BF
:1037700088600220C8600020086101204861084676
:10378000FEF791FA00208549086033204860402008
:1037900088600020C8604FF4806008610846FEF72A
:1037A00059FA3320FFF791FF04460CB12046BEE7DB
:1037B0000CE04FF40010FEF7C4FA38B1FEF795FAAA
:1037C0004DF82600761C012E00D907E0724880389B
:1037D000406B40F22A6108400028EAD000BF082070
:1037E000FEF7AFFA28B10820FEF7B5FA0424204608
:1037F0009DE70220FEF7A5FA28B10220FEF7ABFAFA
:103800000224204693E72020FEF79BFA28B12020CF
:10381000FEF7A1FA0624204689E74FF40070FEF770
:1038200090FA30B14FF40070FEF795FA0724204665
:103830007DE740F2FF50FEF78EFA009800060099EF
:1038400001F47F4140EA0120009901F47F0140EA40
:103850001120009940EA1160686001980006019902
:1038600001F47F4140EA0120019901F47F0140EA1F
:103870001120019940EA11602860204657E77CB585
:1038800005460024002000900190FEF701FA00F0A8
:10389000007010B10E2420467CBD4149098888B2D1
:1038A0006946FFF726FF04460CB12046F4E7012DD8
:1038B00036D1019800F4802000282ED038480088A6
:1038C00000043649086037204860402088600020A6
:1038D000C860A80208610846FEF7BCF93720FFF768
:1038E000F4FE04460CB12046D6E702202B490860BE
:1038F00006204860402088600020C8604FF4806047
:1039000008610846FEF7A6F90620FFF7DEFE04462A
:103910000CB12046C0E72046BEE725242046BBE781
:10392000019800F48030F8B31D48008800041B495A
:10393000086037204860402088600020C8604FF44D
:10394000806008610846FEF785F93720FFF7BDFE65
:1039500004460CB120469FE700201049086006206D
:103960004860402088600020C8604FF48060086193
:103970000846FEF76FF90620FFF7A7FE0446A4B13C
:10398000204689E70010014000140140002000108B
:1039900000F000104404024080800140C401002077
:1039A000B8000020D801002001E0204674E725245B
:1039B000204671E770B504460025FB4800680328DF
:1039C00002D12725284670BDF748006838B1F6486F
:1039D0000068012803D0F448006802282ED1B4F50D
:1039E000805F02D127252846EDE7B4F5006F14D19A
:1039F0000120FFF744FF054605BB0120EB49087590
:103A000000200860486088604FF40060C8600020B3
:103A100008610846FEF7DEF810E00020FFF72FFFF0
:103A200005465DB90120E14908750020086048603D
:103A30008860C86008610846FEF7CCF82846C2E7EF
:103A400070B504460025DA4804600720D84948606C
:103A5000402088600020C8604FF4806008610846FC
:103A6000FEF7F8F80720FFF730FE0546284670BD40
:103A700030B5014600200022CB4B1B7881F84E3038
:103A8000CC4B1B88A1F84C30CB4B1B681A0E93090A
:103A90000B70C2F383034B7002F003038B70C64BB1
:103AA0001B68C3F30742CA70C34B1B88C3F30722CA
:103AB0000A71C14B1A784A715B681A0E1301CB80E8
:103AC000BD4B5B68C3F30742CB8843EA1213CB803C
:103AD00002F00F030B72B84B9B88C3F30722D30984
:103AE0004B72C2F380138B72C2F34013CB72C2F3DA
:103AF00000130B7300234B73AB4B1B681BB1AA4B1A
:103B00001B68012B3CD193071B0D0B61AA4B1A7943
:103B10000B6943EA82030B61A74B9B681A0E0B6982
:103B200043EA92130B61C2F3C2030B7502F0070361
:103B30004B75A14B9B68C3F3074253098B75C2F3C6
:103B40008203CB7593075B0F0B769B4B1B89C3F3EB
:103B500007220B7E43EAD2130B760B695B1C4B6486
:103B60000C7E4B6CA41C0125A5406B434B640C7A66
:103B70000123A3408B64D1E9113463434B6421E0FA
:103B8000894B1B68022B1DD18B4B1A7993069B0A1C
:103B90000B61894B9B681A0E0B6943EA02230B6188
:103BA000854B9B68C3F307420B6913430B61824B40
:103BB0001B89C3F307220B695B1CDB044B644FF4C6
:103BC00000738B64C2F3801301F8193F93065B0EF8
:103BD0004B70794B1A7A4B7843EAD2134B7002F050
:103BE0007F038B70744BDB681A0ED309CB70C2F362
:103BF00041130B71C2F382034B7193071B0F8B713F
:103C00006D4BDB68C3F307428B7943EA92138B71E8
:103C1000C2F34013CB7100230B7202F001034B720D
:103C2000654B9B89C3F30722D3098B72C2F38013C0
:103C3000CB72C2F340130B73C2F300134B73C2F386
:103C400081038B7302F00303CB735B4B1A7B530826
:103C50000B7401234B74594B1B681A0ECA74193923
:103C6000564B1B68C3F307421402CC85534B1B8889
:103C7000C3F30722CB8D1343CB85504B1A78140620
:103C80000C635B681A0E0B6B43EA02440C634B4BEC
:103C90005B68C3F307420B6B43EA02240C63474B98
:103CA0009B88C3F307220B6B13430B63434B1A79B7
:103CB00034235A54414B9B681A0E35235A543F4BB8
:103CC0009B68C3F3074214068C633C4B1B89C3F308
:103CD00007228B6B43EA02448C63384B1A7A8B6B56
:103CE00043EA02248C63354BDB681A0E8B6B13435B
:103CF0008B63324BDB68C3F307423C235B5C43EAD4
:103D000012143C235C5413071C0DCC872B4B9B894E
:103D1000C3F30722CB8F1343CB87284B1A7B54085E
:103D200040235C54012441235C5430BD70B5002510
:103D30002348446B01E02248446B04F0450000280E
:103D4000F9D004F0040028B103250420FEF703F89D
:103D5000284670BD04F0010028B101250120FDF7BF
:103D6000FAFF2846F5E740F2FF50FDF7F4FF28463A
:103D7000EFE72DE9F04106460F464FF000081048E6
:103D8000456B01E00E48456B05F045000028F9D071
:103D900005F00400B0B14FF003080420FDF7DBFF8D
:103DA0004046BDE8F0810000B4000020AC010020D6
:103DB000C4010020B80000202C0100203C0100209C
:103DC0000080014005F0010030B14FF001080120F2
:103DD000FDF7C1FF4046E4E7FDF756FFB04203D0D0
:103DE0004FF010084046DCE740F2FF50FDF7B3FF0C
:103DF0000020FDF74DFF044604F4604018B9200C84
:103E000038804046CDE704F4005008B11320C8E7DD
:103E100004F4804008B11020C3E704F4004008B166
:103E20000F20BEE74046BCE738B5002401200090D3
:103E3000FDF7FBFE10B92524204638BDF848006880
:103E4000042828D00020F749086002204860C020DC
:103E500088600020C8604FF4806008610846FDF764
:103E6000F9FEFFF763FF04460CB12046E5E70020AA
:103E7000FDF70EFFEC4908600420FDF709FFEA4951
:103E800048600820FDF704FFE74988600C20FDF733
:103E9000FFFEE549C860E248006858B1E0480068A4
:103EA000012807D0DE480068062803D0DC480068F7
:103EB000022816D10020DB4908600320486040201A
:103EC00088600020C8604FF4806008610846FDF7F4
:103ED000C1FE69460320FFF74CFF04460CB12046A3
:103EE000ABE7CF48006804282ED0BDF80000CF49CA
:103EF0000860BDF800000004CA4908600920486055
:103F0000C02088600020C8604FF4806008610846C7
:103F1000FDF7A0FEFFF70AFF04460CB120468CE730
:103F20000020FDF7B5FEC24908600420FDF7B0FE91
:103F3000BF4948600820FDF7ABFEBD4988600C20F2
:103F4000FDF7A6FEBA49C8600024204675E770B5A3
:103F50000025B848446B01E0B648446B04F04500C6
:103F60000028F9D004F0040028B103250420FDF74F
:103F7000F2FE284670BD40F2FF50FDF7ECFE2846E9
:103F8000F8E770B500264FF48035AA48446B02E08C
:103F90006D1EA848446B04F0450008B9002DF7D108
:103FA00015B104F0040028B103260420FDF7D3FE68
:103FB000304670BD04F0400028B100264020FDF7D7
:103FC000CAFE3046F5E73046F3E770B500254FF4FA
:103FD000803400E0641E24B18020FDF7B2FE00288A
:103FE000F8D014B90325284670BD40F2FF50FDF704
:103FF000B2FE2846F8E72DE9F0410024002600250E
:104000000027A046B2208C4908750020086048604F
:104010008860C86008610846FDF7DCFD0320FDF7F5
:10402000F9FD0120FDF7F3FD00207E49086048609E
:104030008860C8604FF4806008610846FDF70AFE9A
:10404000FFF7C3FF044614B12046BDE8F0814FF4EA
:10405000D5707449086008204860402088600020BE
:10406000C8604FF4806008610846FDF7F3FDFFF774
:1040700088FF04462CB90120694908604FF0804848
:1040800012E00020674908603720486040208860BF
:104090000020C8604FF4806008610846FDF7DAFD33
:1040A0003720FFF712FB044600205E4908603720E6
:1040B0004860402088600020C8604FF4806008613C
:1040C0000846FDF7C7FD3720FFF7FFFA0446002C2E
:1040D0004AD136E00020534908603720486040202C
:1040E00088600020C8604FF4806008610846FDF7D2
:1040F000B1FD3720FFF7E9FA04460CB12046A4E7EA
:104100004E4848EA0000474908602920486040209E
:1041100088600020C8604FF4806008610846FDF7A1
:1041200099FDFFF714FF04460CB120468DE70020EF
:10413000FDF7AEFD0646012080EAD67080F001074B
:104140006D1C1FB94FF6FF708542C3D34FF6FF7049
:10415000854202D31B24204677E706F08040061EE6
:1041600002D002202E49086020466EE710B50024D8
:10417000FFF719FAFFF786FAFDF71EFDFFF73BFF81
:1041800004460CB1204610BDFFF74EFE04460CB1AC
:104190002046F8E70120284908750020086048609B
:1041A0008860C86008610846FDF714FD1CB9244802
:1041B000FFF75EFC044634B92149B1F84C100804FD
:1041C000FFF73EFC044624B94FF40060FFF7F2FB12
:1041D00004462046D7E770B50446002513480088FA
:1041E00000041449886040F24D40C8600D20FFF77C
:1041F0006CFA05460DB1284670BD0E484069206036
:104200002846F9E708B5002000906846FFF7E3FF6D
:1042100008B1FF2008BD0098C0F34320FAE7000072
:10422000B4000020C40100203C010020B8000020A0
:104230002C01002000800140AC0100200000108013
:104240005C01002010B50424FFF7DCFF0446042CB9
:1042500001D1002010BDFF2C01D10220FAE701207E
:10426000F8E710B500240020FDF7D4FC204610BD6F
:1042700070B50446002500260020FDF709FD00F07A
:10428000007010B10E25284670BD4020FC49086022
:1042900010204860402088600020C8604FF4806093
:1042A00008610846FDF7D6FC1020FFF70EFA054618
:1042B0000DB12846E8E7F34800880004F04908609B
:1042C00037204860402088600020C8604FF480603C
:1042D00008610846FDF7BEFC3720FFF7F6F90546F2
:1042E0000DB12846D0E74FF0FF30E7490860402085
:1042F0004860602088600220C860002008610120BA
:1043000048610846FDF7CFFC0020DD4908600D201C
:104310004860402088600020C8604FF480600861D9
:104320000846FDF797FC0D20FFF7CFF905460DB1C4
:104330002846A9E70EE04FF40040FDF702FD48B122
:10434000002604E0FDF7D1FC44F82600761C082E78
:10435000F8D32034CD48406B40F22A610840002851
:10436000E9D00820FDF7EDFC28B10820FDF7F3FCAB
:104370000425284688E70220FDF7E3FC28B1022047
:10438000FDF7E9FC022528467EE72020FDF7D9FC51
:1043900028B12020FDF7DFFC0625284674E74FF4FE
:1043A0000070FDF7CEFC30B14FF40070FDF7D3FC88
:1043B0000725284668E703E0FDF797FC2060241DE9
:1043C0004FF40010FDF7BDFC0028F5D140F2FF507E
:1043D000FDF7C1FC284657E770B5044600260025C6
:1043E000AB48FFF745FF06460EB1304670BDA84802
:1043F000007885092570A6480078C0F340156570DF
:10440000A348857828026080A148C5786088284341
:1044100060809F480579280660609D4845796068FE
:1044200040EA054060609A488579606840EA052066
:1044300060609748C5796068284360609448057A51
:104440002572457A6572807A0509A5729048C57A09
:104450002802A0818E48057BA0892843A0818C4832
:10446000407B8508A5738A48407B00F00305E5730F
:104470003046BBE72DE9F04107460D4614460026BD
:1044800000208449087084490860844908607F4995
:10449000C86283480068022801D104026D0A784886
:1044A0000460102076494860402088600020C86081
:1044B0004FF4806008610846FDF7CCFB1020FFF741
:1044C00004F9064616B13046BDE8F0814FF0FF30E2
:1044D0006D49086008464460902088600220C860EA
:1044E00000200861012048610846FDF7DCFB6448B4
:1044F0000560112062494860402088600020C86043
:104500004FF4806008610846FDF7A4FB1120FFF717
:10451000DCF806460EB13046D6E701210802FDF769
:1045200089FB0120FDF793FB21463846FFF754F83D
:104530003046C9E72DE9F04180460D4614461E4637
:10454000002700205349087053490860012053494F
:10455000086000204D49C86251480068022801D116
:1045600004026D0A46480460102045494860402016
:1045700088600020C8604FF4806008610846FDF73D
:1045800069FB1020FFF7A1F8074617B13846BDE8D0
:10459000F0814FF0FF303C49086006FB04F04860B2
:1045A000902088600220C8600020086101204861D6
:1045B0000846FDF778FB3248056012203049486014
:1045C000402088600020C8604FF480600861084681
:1045D000FDF740FB1220FFF778F807460FB1384689
:1045E000D5E701210802FDF725FB0120FDF72FFB90
:1045F00006FB04F14046FEF7EFFF3846C7E710B56B
:10460000002400BFFEF7E3FF30B92348006818B963
:10461000204800780028F5D01E48007810B11D48C9
:10462000007810BD2046FCE72DE9F04107460D4615
:1046300014460026002017490870174908601749DA
:1046400008601249C86216480068022801D10402B5
:104650006D0A0B48046010200949486040208860BA
:104660000020C8604FF4806008610846FDF7F2FA48
:104670001020FFF72AF80646A6B13046BDE8F081C3
:10468000C4010020B8000020D801002000800140B3
:104690004C010020C0000020C4000020BC0000200D
:1046A000B4000020FE4805601820FD494860402005
:1046B00088600020C8604FF4806008610846FDF7FC
:1046C000C9FA1820FFF701F806460EB13046D5E7C3
:1046D0004FF0FF30F349086008464460902088603E
:1046E0000020C8600861012048610846FDF7DBFA38
:1046F00001210802FDF79EFA21463846FEF797FF92
:104700000120FDF7A4FA3046B8E72DE9F8438046CA
:104710000F4615461E46002400200090E24908700E
:10472000E24908600120E24908600020E149C862CE
:10473000E1480068022801D105027F0AD8480560D7
:104740001020D7494860402088600020C8604FF49E
:10475000806008610846FDF77DFA1020FEF7B5FF7E
:10476000044614B12046BDE8F883D448008800040C
:10477000CB49086037204860402088600020C8602E
:104780004FF4806008610846FDF764FA3720FEF7B1
:104790009CFF04460CB12046E5E7C148066017209F
:1047A000BF494860402088600020C8604FF48060A6
:1047B00008610846FDF74EFA1720FEF786FF04460B
:1047C0000CB12046CFE7B64807601920B4494860CD
:1047D000402088600020C8604FF48060086108466F
:1047E000FDF738FA1920FEF770FF04460CB1204699
:1047F000B9E74FF0FF30AB49086006FB05F04860B1
:10480000902088600020C860086101204861084647
:10481000FDF749FA01210802FDF70CFA0120FDF726
:1048200016FA06FB05F14046FEF701FF20469AE71F
:1048300010B5002400BFFEF7CAFE30B99B480068DF
:1048400018B9994800780028F5D09748007810B139
:104850009548007810BD40F2FF50FDF77CFA2046E5
:10486000F8E79448406B00F4405008B101207047CD
:104870000020FCE710B5002400208E49886040F23B
:104880004C40C8600C20FEF720FF0446204610BDB7
:104890007CB50446002500200190009087480088E0
:1048A00000047F4908600D20486040208860002097
:1048B000C8604FF4806008610846FDF7CBF97D4879
:1048C000406B009002E07B48406B0090009800F045
:1048D00045000028F7D0009800F0040028B1032517
:1048E0000420FDF738FA28467CBD009800F001004E
:1048F00028B101250120FDF72EFA2846F4E7FDF73F
:10490000C3F9009000980D2802D010252846EBE747
:1049100040F2FF50FDF71FFA0020FDF7B9F90190B2
:104920000198C0F34320207065490198084008B9F8
:104930002846D9E7019800F0004008B11C20D3E7D1
:10494000019800F0804008B10920CDE7019800F0FF
:10495000005008B10A20C7E7019800F0805008B164
:104960000B20C1E7019800F0006008B10C20BBE704
:10497000019800F0806008B10D20B5E7019800F0C3
:10498000807008B10E20AFE7019800F4000008B174
:104990000F20A9E7019800F4800008B11020A3E7D8
:1049A000019800F4001008B111209DE7019800F46F
:1049B000801008B1122097E7019800F4002008B198
:1049C000132091E7019800F4802008B114208BE7B0
:1049D000019800F4003008B1152085E7019800F433
:1049E000803008B116207FE7019800F4004008B13C
:1049F000172079E7019800F4804008B1182073E788
:104A0000019800F4005008B119206DE7019800F0FA
:104A1000080008B11A2067E7284665E72DE9FC4140
:104A200005460E46002400270020019000902548EE
:104A30004068202101EA105018B925242046BDE81D
:104A4000FC811C484068C0B2801C1F49B1FBF0F0DB
:104A500001900020FDF71CF900F0007010B10E2449
:104A60002046ECE714480068022801D16D0A760A56
:104A70001148006838B110480068012803D00E487A
:104A80000068022842D10648056020200449486099
:104A9000402088600020C8604FF48060086115E005
:104AA000C4010020D8010020C0000020C400002064
:104AB000BC00002000800140B4000020B8000020AD
:104AC00008E0FFFD2C010020C0D401000846FDF7DE
:104AD000C1F82020FEF7F9FD04460CB12046AEE7F0
:104AE000384806602120374948604020886000200F
:104AF000C8604FF4806008610846FDF7ABF82120DC
:104B0000FEF7E3FD04460CB1204698E700202D494E
:104B1000086026204860402088600020C8604FF46C
:104B2000806008610846FDF795F82620FEF7CDFD68
:104B300004460CB1204682E7002700E07F1C019864
:104B40008742FBD36846FFF7A3FE044603E06846AE
:104B5000FFF79EFE04463CB99DF800000728F6D0FA
:104B60009DF800000628F2D0204668E710B51648E8
:104B7000006801280BD100201449886040F24C40A5
:104B8000C8600C20FEF7A1FD1149087002E000206A
:104B90000F4908704FF48070FDF7EAF800214FF4D8
:104BA0008070FDF747F801200A490860084800783E
:104BB00010BD0146002002E04910421CD0B201297C
:104BC000FAD17047C4010020BC00002000800140E1
:104BD000C0000020C400002008B501210920FCF716
:104BE00087FF01214FF4EA10FCF797FD4FF40070A6
:104BF000ADF8000018208DF8030003208DF80200A6
:104C000069465748FCF7B8FC4FF48070ADF80000D7
:104C100048208DF8030003208DF8020069465048B3
:104C2000FCF7AAFC08BD08B54FF4C060FBF78CFB8D
:104C300014208DF8000000208DF801008DF802008E
:104C400001208DF803006846FBF783FB08BD0EB515
:104C500001214806FCF759FF4248FBF70BFE684666
:104C6000FBF72CFF00208DF8060001208DF80700CF
:104C70008DF8080000208DF809008DF80A008DF8E5
:104C80000B008DF8020001208DF8030004208DF840
:104C9000040002208DF805001020ADF800006946E0
:104CA0003048FBF700FE0EBD1FB54FF480740020A6
:104CB0008DF80A008DF80B0001208DF80C006005BE
:104CC000000CADF80000002040EA445080B2ADF87E
:104CD00002004FF6FF70ADF80400ADF806000020AA
:104CE000ADF8080001208DF80D006846FBF765FE61
:104CF000012202211B48FCF75FF91FBD10B5FFF729
:104D00006BFFFFF790FFFFF7A2FFFFF7CDFF10BD8E
:104D1000002100220260426002728272C27400BFEF
:104D200005E0002300F10B0253544A1CD1B20829BC
:104D3000F7DB704710B50A46002140F221130360EB
:104D40000023037243720223837200BF05E0545CA8
:104D500000F10B035C544B1CD9B20229F7DB10BDE8
:104D6000000C01400064004008B501211020FCF750
:104D7000BFFE0E20ADF8000000208DF8030069464C
:104D80004448FCF7F9FB08BD00B591B00121084685
:104D9000FCF7A1FE4048FCF765FA40480690404801
:104DA0000790002008900320099000200A9080209E
:104DB0000B9040000C9080000D9020200E9000027F
:104DC0000F900020109006A93348FCF7EDFA01215E
:104DD0003148FCF714FB01214802FCF789FE002052
:104DE000019001208DF808008DF809004FF4602033
:104DF00003900020049003208DF8140001A9274897
:104E00004C38FBF736FB4FF44040FCF7D5FD05234B
:104E100001220B2121484C38FBF7C3FB052302225A
:104E20000C211E484C38FBF7BCFB052303220D2147
:104E30001A484C38FBF7B5FB012118484C38FBF7F2
:104E40004FFB012115484C38FBF73FFB13484C380A
:104E5000FBF75DFB00BF11484C38FBF75DFB0028FA
:104E6000F9D10E484C38FBF761FB00BF0B484C38BA
:104E7000FBF761FB0028F9D1012108484C38FBF70A
:104E800064FB11B000BD10B5FFF76EFFFFF77CFFAC
:104E900010BD000000100140080002404C240140F9
:104EA000C800002008B54FF4E060FBF74DFA36204B
:104EB0008DF8000000208DF8010003208DF802001D
:104EC00001208DF803006846FBF743FA08BD0EB5D4
:104ED00001211020FCF719FE40F2E730ADF8040084
:104EE0004720ADF8000069460B48FDF723F8012183
:104EF0000948FDF741FE012211460748FDF791FBE5
:104F000001210548FDF772FB0EBD10B5FFF7CAFF82
:104F1000FFF7DDFF10BD00000010004030B5014676
:104F2000B1F1807F01D3012030BD21F07F40401ED0
:104F30004FF0E022506150170F22002807DA1307C4
:104F40001D0E3E4B00F00F04241F1D5503E01307F8
:104F50001C0E3B4B1C5400BF00204FF0E022906120
:104F6000072010610020DFE710B536480068364999
:104F7000B0FBF1F42046FFF7D1FF08B100BFFEE718
:104F800010BD01B53149009808604FF0E02000697C
:104F900040F001004FF0E021086100BF2B4800689D
:104FA0000028FBD108BD2948006820B127480068C7
:104FB000401E26490860704731B5224800682449E0
:104FC000B0FBF1F52846FFF7A9FF002408E000BF79
:104FD0004FF0E020006900F480300028F8D0641C15
:104FE00000988442F3D34FF0E020006920F00100E4
:104FF0004FF0E021086138BD31B5124800684FF428
:105000007A71B0FBF1F52846FFF788FF002408E02D
:1050100000BF4FF0E020006900F480300028F8D095
:10502000641C00988442F3D34FF0E020006920F024
:1050300001004FF0E021086138BD000018ED00E0EC
:1050400000E400E000000020A0860100D000002065
:1050500040420F0010B5012270A1714801F07AFFA3
:1050600070490870084600780D2817D100221146B3
:105070006AA002F0E7FE6B4908700846007868B93C
:10508000012266A1002001F065FF66490870012237
:1050900062A1634801F05EFF6249087010BD022101
:1050A000FF20614A1070507060480068020E60482E
:1050B0000078604B1B8800FB03105B4B1A545B4865
:1050C0000068C0F307425A4800785A4B1B8858437F
:1050D000401C0844544B1A5454480068C0F307223B
:1050E00053480078534B1B885843801C08444E4B50
:1050F0001A544E480068C2B24D4800784D4B1B8888
:105100005843C01C0844484B1A544B480088020AB4
:1051100047480078474B1B885843001D0844424BC2
:105120001A544548027842480078424B1B8858433D
:10513000401D08443C4B1A5440480088020A3C4831
:1051400000783C4B1B885843801D0844364B1A544A
:105150003A480088C2B236480078364B1B8858431C
:10516000C01D0844304B1A5435480088020A3048A4
:105170000078304B1B885843083008442A4B1A5497
:105180002F4802782A4800782A4B1B885843093058
:105190000844254B1A5427480088401C254A108093
:1051A00010460088632801DB012070470020FCE7DF
:1051B00010B52448007840B9122223A12548006880
:1051C00001F0F3FE1749087007E0122222A12148DE
:1051D000006801F0EAFE134908701E480068C168C3
:1051E0001C48006802F0FEF91E4B4FF47D720E4918
:1051F0001848006802F088F818B900200D490880A6
:1052000007E02020184908600120091F08600220DB
:1052100008601048006802F0D5F910BD303A00006F
:10522000E4050020E4000020F0010020A0000020A0
:10523000DF0000209200002076000020C80000203F
:1052400084000020A8000020303A2F3138312E741D
:1052500078740000E0000020303A2F3138322E748C
:1052600078740000E8000020140C014008B501210A
:105270001420FCF73DFC0120ADF8000004208DF85F
:10528000030069461148FCF777F94FF40050ADF878
:10529000000004208DF8030069460D48FCF76CF906
:1052A00008BD70B504460D4629462046FCF7F7F9BF
:1052B000012808D100BF29462046FCF7F0F9012853
:1052C000F9D0012070BD0020FCE70000000801407B
:1052D0000010014001B502E00098401E00900098C7
:1052E0000028F9D108BD08B54FF4E060FBF72CF8B1
:1052F00026208DF8000001208DF801008DF80200B5
:105300008DF803006846FBF724F808BD00B585B0AA
:1053100001211420FCF7ECFB01214804FCF7F5FB0C
:105320000420ADF8100018208DF8130003208DF82C
:10533000120004A9B648FCF71FF90820ADF81000C8
:1053400004208DF8130004A9B148FCF715F90420D6
:10535000ADF8100010208DF8130003208DF8120016
:1053600004A9AC48FCF708F94FF4E13000900020A4
:10537000ADF80400ADF80600ADF80800ADF80C007B
:105380000C20ADF80A006946A348FDF750FC012146
:10539000A148FDF7D8FCFFF7A6FF012240F22551F6
:1053A0009D48FDF7DCFC04219A48FCF794F905B010
:1053B00000BD10B5044621469748FDF731FD00BFFA
:1053C00080219548FDF79AFD0028F9D010BD01B560
:1053D00002E00098401E009000980028F9D108BD16
:1053E00070B505460E4600244FF47A70FFF772FF41
:1053F00004218848FCF76DF94FF47A70FFF76AFFD3
:1054000000BF285DFFF7D5FF641CB442F9D340F616
:10541000FF70FFF7DCFF4FF47A70FFF75BFF0421AA
:105420007C48FCF758F94FF47A70FFF753FF70BDD2
:1054300070B5044600254FF47A70FFF74BFF042146
:105440007448FCF746F94FF47A70FFF743FF00BF4A
:10545000605DFFF7AEFF6D1C605D0028F8D140F67F
:10546000FF70FFF7B4FF4FF47A70FFF733FF0421AA
:105470006848FCF730F94FF47A70FFF72BFF70BDE6
:1054800010B566480088B0F5806F17DA40F22551F4
:105490006148FDF749FDB0B15F48FDF7C5FC6049C3
:1054A0005E4A128888545D480088401C5B49088029
:1054B00040F225515848FDF761FD04E040F22551C6
:1054C0005548FDF75BFD10BD014654480088088033
:1054D0005348704740F201400021504A118005E0D6
:1054E0000022411E89B208464D4B5A540028F7D17C
:1054F00070472DE9F04788B007468846002549A245
:10550000D2E900109268CDE90502049148A2D2E9DF
:1055100000109268CDE9020201918DF8077008F041
:10552000FF008DF80B004FEA18208DF80C009DF855
:105530000B1007F5BF7008449DF80C10084400F0EC
:10554000FF0ACAF1FF00C0B28DF80D004FF47A7067
:10555000FFF7C0FE04212F48FCF7BBF84FF47A7028
:10556000FFF7B8FE002605E001A9885DFFF721FFDF
:10557000701C86B2092EF7DD41F6FF70FFF727FF9A
:10558000002605E004A9885DFFF713FF701C86B2B2
:10559000082EF7DD4FF47A70FFF79CFE04211D48BA
:1055A000FCF799F84FF47A70FFF794FE40F6FF701D
:1055B000FFF70DFF07A8FFF787FF81464C46BDF8B0
:1055C0001C0008281EDB002515E0605DFF2810D1B7
:1055D000681C205CFF280CD1A81C205CFF2808D187
:1055E000E81C205C28B9A179E07901EB002013497F
:1055F0000880681C85B2BDF81C00C01FA842E4DC0E
:10560000FFF768FF0D48008808B0BDE8F08700008C
:10561000000801400010014000440040EE0000205E
:1056200038270020FFFFFF0004F28C027B000000FF
:10563000FFFFFF0105F386000080000088000020C6
:105640000146012011B1012904D102E020F001003E
:1056500002E001E0012000BF00BF704770B50446C2
:10566000012514B1012C09D107E0FEF77FFD10B927
:1056700025F0010500E0012502E001E0012500BF61
:1056800000BF284670BD2DE9F047ADF5007D064608
:105690000C4615461F464FF0040A4FF0000816B19D
:1056A000012E41D13FE004F0030000B34FF00009A8
:1056B00013E02A466D1C012369460020FFF7E3FF33
:1056C0008146B9F1000F00D00BE04FF4007269463B
:1056D000204603F02FF904F50074381EA7F10107E6
:1056E000E7D100BF48460DF5007DBDE8F0876902AF
:1056F0003B464FF400722046FEF71CFF8046B8F18F
:10570000000F07D1FEF77BFF804600BFFEF79AFD32
:105710000028FBD1B8F1000F02D04FF0040A01E0DD
:105720004FF0000A03E002E04FF0040A00BF00BFA0
:105730005046D8E72DE9F047ADF5007D07460C4609
:1057400015461E464FF0040A4FF0000826B9042003
:105750000DF5007DBDE8F08717B1012F3ED13CE08B
:1057600004F00300E8B14FF0000913E04FF40072B9
:105770002146684603F0DEF82A466D1C012369467F
:105780000020FFF7D7FF8146B9F1000F00D005E0F8
:1057900004F50074301EA6F10106E7D100BF4846AB
:1057A000D6E7690233464FF400722046FEF7ADFF9C
:1057B0008046B8F1000F07D1FFF73AF8804600BFE6
:1057C000FEF740FD0028FBD1B8F1000F02D04FF0EA
:1057D000040A01E04FF0000A03E002E04FF0040A7F
:1057E00000BF00BF5046B3E730B50346042013B1F5
:1057F000012B1CD11AE0A9B101290BD0022902D03A
:10580000032910D103E04FF4007414800BE001244D
:10581000146008E0094C646C084DAD6CB4FBF5F401
:10582000146000E000BF00BF002002E001E004209F
:1058300000BF00BF30BD0248704700005C0100207F
:105840000000214670B503460C4603E014F8015BE6
:1058500003F8015B151EA2F10102F7D170BD30B54E
:10586000034601E003F8011B141EA2F10102F9D165
:1058700030BDF0B503461C460D46002000BF161E85
:10588000A2F1010207D014F8017B15F801CBA7EBB8
:105890000C06301EF3D0F0BD024600E0521C10781A
:1058A00010B110788842F9D1107870472DE9F04195
:1058B000044600272079F8B1E56A607801232A467A
:1058C00004F13001FFF736FF08B1012714E0002092
:1058D0002071206A281AA16988420DD2E67809E071
:1058E000A0690544607801232A4604F13001FFF7DE
:1058F00021FF761E022EF3D23846BDE8F08170B546
:1059000004460D460026E06AA84210D02046FFF764
:10591000CDFF06465EB9607801232A4604F13001C6
:10592000FFF7B1FE10B14FF0FF350126E5623046BA
:1059300070BD70B504462046FFF7B8FF0546002D40
:1059400059D1207803284FD1607901284CD1628940
:10595000002104F13000FFF782FF552184F82E1258
:10596000AA2184F82F12522084F8300052213120CD
:105970000155612132200155412133200155722109
:1059800084F8141284F81512412184F8161261214A
:1059900084F81712217C84F81812208A010A84F8EE
:1059A00019122069010C84F81A122069010E84F87A
:1059B0001B12217B84F81C12A089010A84F81D1295
:1059C000E068010C84F81E12E068010E84F81F12D2
:1059D000E069401CE0626078012304F13001E26A72
:1059E000FFF7A8FE00206071607800221146FFF7E3
:1059F000FBFE00B10125284670BD0246891E506994
:105A0000801E884201D8002070479378906A01FB7D
:105A10000300F9E72DE9F05F04460D46022D02D39D
:105A20006069A84202D84FF001098FE04FF0FF39BA
:105A30002078012804D002283CD003287ED157E0EA
:105A40002F4607EB57076089B7FBF0F0216A00EBA0
:105A5000010A51462046FFF752FF00B175E0384673
:105A60007F1C6189B0FBF1F201FB120104F13000EF
:105A700010F801806089B7FBF0F0216A00EB010AA1
:105A800051462046FFF73BFF00B15EE06089B7FB5F
:105A9000F0F100FB117104F13000405C48EA00288D
:105AA00005F0010010B14FEA181001E0C8F30B0037
:105AB00081464AE0B4F80AA00AEBDA704010B5FB60
:105AC000F0F0216A00EB010B59462046FFF717FF63
:105AD00000B13AE068006189B0FBF1F201FB12010C
